:020000040000fa
:100000000200de021003000000000002100b0000de
:10001000000000021013000000000002101b00008e
:10002000000000021023000000000002102b00005e
:10003000000000021033000000000002103b00002e
:10004000000000021043000000000002104b0000fe
:10005000000000021053000000000002105b0000ce
:10006000000000021063000000000002106b00009e
:10007000000000021073000000000002107b00006e
:10008000000000021083000000000002108b00003e
:100090000000000208d61200f0b900030200d8e404
:1000a000900002784879098002f0a3d8fcd9fa9030
:1000b0000849aa82ab839000f6780779018015e49d
:1000c00093a3ac82ad838a828b83f0a3aa82ab8395
:1000d0008c828d83d8e9d9e712034c1208f575d0cc
:1000e0000075813f75188075931e5392fe0200962d
:1000f00079015392fe2200100008000060160808e3
:1001000008c6c313c618c613c618c613c618c61326
:10011000c6d5e0ea22e026f008a3e036f008a3e026
:1001200036f008a3e036f022e0f608a3e0f608a3d4
:10013000e0f608a3e0f622cac0e0e6f30908dafa1e
:10014000d0e0fa22700422600d18c6c333c608c678
:1001500033c6d5e0f41822e4735392fed083d082e4
:100160002518f8c518c39824fbcef208e520f2083c
:10017000e9c0e07908e709f208defad0e0f9eff229
:1001800008d0e0fed0e0f208eef208e473a818e22e
:10019000fe08e208f520e9c0e07908e208f709df87
:1001a000fae208ffd0e0f9e208c0e0e208c0e08827
:1001b000185392fe22e584f208e585f222e208f562
:1001c00084e2f5852274028000c9c0e0e518c39975
:1001d000f518c9120137d0e0f92274022408f87426
:1001e000003400f9e4e9f8f5d374022408f5d25399
:1001f00092fe22a2afe433f8c2af5392fe90627037
:10020000e0a2e740f5e9c333906272f0906270e0db
:10021000d2e0f0906270e0a2e740f8e8fae8a2e0ed
:1002200092af5392fe2274fa120159a2afe433f84e
:10023000c2afecfeedffe4effe900002f0ec9000a8
:1002400003f09000047462f09000057473f0900065
:10025000067400f0e9900007f09000087412f09026
:1002600000097442f0eafeebffe4effe906272f0e8
:10027000ea906271f07e027f00e4effef5d575d45e
:100280000275d601906270e0d2e1f0906270e0a257
:10029000e740f8e8fee8a2e092af7f0102018d534b
:1002a00092fe906276e054706430700474038002b1
:1002b0007407f875c6807480659e70fa90627074d9
:1002c00008f088c790ff0ae0f5f190ff0be0f5f326
:1002d00090ff0ce0f5f490ff0de0f5f590ff02e0e3
:1002e000f58690ff03e0f5c490ff04e0f5c590ffac
:1002f00005e0f5c290ff06e0f5f890ff07e0f5fb9a
:1003000090ff08e0f5fc90ff09e0f5fae5f1a2e1c5
:100310004008e5ff543f4440f5ff5392fe2274fa33
:100320001201597900ecfeedffee24fffcef34ffe3
:10033000fdee4f60128a828b83e029f98a828b83db
:10034000a3aa82ab8380de7f0102018d7e005392df
:10035000fe900001e090001af07ea5e5c7f5097552
:10036000c7007c007d707a007b9012031ee92efe90
:100370008509c77508037f01efc39508501ae5c7c3
:10038000f5098fc77c007d807a007b8012031ee90f
:100390002efe8509c70f80e0ee7027e59d54186496
:1003a00010700890001ae0a2e0401790000174035a
:1003b000f00592900849e0f582a3e0f583059212da
:1003c000015712029f9000017400f01201da120628
:1003d0003280fec008c0097401c0e0740759f8d02b
:1003e000e0b800028004c333d8fcf889087509001e
:1003f000e5085418fae5095400fbea600a24f8609d
:100400000b24f8600c800de842808008e842908060
:1004100003e842a0d009d0085392fe22c008c009c8
:100420007401c0e0740759f8d0e0b800028004c33a
:1004300033d8fcf8f4f88908750900e5085418fa6f
:10044000e5095400fbea600a24f8600b24f8600c0c
:10045000800de852808008e852908003e852a0d0d6
:1004600009d0085392fe22c008c0097401c0e0748c
:100470000759f8d0e0b800028004c333d8fcf889eb
:1004800008750900e5085418fae5095400fbea600c
:100490000a24f8600b24f8600c800de842fd800807
:1004a000e842fe8003e842ffd009d0085392fe22c2
:1004b00079035392fe906276e0a2e65002790753e8
:1004c00092fe22e9f85392fe900843e0700d88c135
:1004d000e586a2e040fae5c1f9800988f9a2f84072
:1004e000fce5f9f95392fe2274f71201591518151b
:1004f00018a8181201b575841b758500900844e092
:1005000060237e00eec3941040030205907f00ef4d
:10051000c39480500d79001204c3e90592f0a30f33
:1005200080ed0e80df9008457808120128740f785e
:10053000081200fce508f5c7900845780812012864
:10054000e5084400fae5094480fb7e00eec3941000
:10055000502e7f00efc3948050238a828b83e00566
:1005600092f08a828b830592a3aa82ab83858482d0
:10057000858583a38582848583850f80d70e80cc73
:1005800090084b7808120128900845780812011548
:10059000a8181201bd051805187f0402018d75bc4d
:1005a0000075bc005392fe22ecf8edf9e824fffc44
:1005b000e934fffde84960158a828b835392fee09f
:1005c000f5bd8a828b83a3aa82ab8380db5392fe24
:1005d00022e5bdf87900fae9fbe4cafbe5bcf8794d
:1005e000004afae94bfb5392fe2274fa1201599029
:1005f0000844e06022900841e0f912041c790312db
:1006000004c3e979001204c3e979001204c3e9794b
:10061000001204c3e980167c007d807e017f00907b
:100620000845ecf0a3edf0a3eef0a3eff07f01029c
:10063000018d74f512015915181518a8181201b575
:10064000750a00750b007509301204b0e9f5c79002
:10065000ff28e0900841f090ff29e0900842f090d8
:10066000ff27e0900843f090ff2ae0a2e0e43390f7
:100670000844f0900844e06041900842e0f9120418
:100680001c900842e0f9120467900842e0f9120356
:10069000d37efee595ffe5956f6004e595ff1eeec0
:1006a00070f4900841e0f91203d3900841e0f91288
:1006b0000467900841e0f91203d31205ea1204e836
:1006c00012059e7cfe7d077a1d7b001205a812058f
:1006d000d18a0c8b0dae0caf0d750c26750d007804
:1006e0000c1201c57c1b7d007a1b7b081208f905e2
:1006f000180518eef8eff9e4e9f890081ce06870c6
:100700000bee54fff890081be06860030208bf126c
:10071000059e900844e0702e7401c0e074075509ee
:10072000f8d0e0b800028004c333d8fcf4fa75f0c6
:1007300008e50984f87900743128f582740839f5e0
:1007400083e05af00509750800e508c394805071ec
:10075000750c01750d00e50875f00884e5f0780c5e
:1007600012014475f008e50884f87900742128f531
:1007700082740839f583e0550c6042900844e070bb
:100780002e7401c0e074075509f8d0e0b80002806b
:1007900004c333d8fcf4fa75f008e50984f879004d
:1007a000743128f582740839f583e05af00509128e
:1007b00004e87c007d087a1b7b001205a8050880f0
:1007c00088900844e06008900841e0f91203d312d1
:1007d00005d18a0c8b0dae0caf0deef8e50da90d11
:1007e000e4e50da80d90081ee068700bee54fff8cc
:1007f00090081de06860030208bf750800e508c3a3
:1008000094805034750c01750d00e50875f008846e
:10081000e5f0780c12014475f008e50884f87900d9
:10082000743128f582740839f583e0550c6005a908
:10083000081201f3050880c51205ea1204e87508dc
:1008400000e508c394805077750c01750d00e5082c
:1008500075f00884e5f0780c12014475f008e5089d
:1008600084f87900742128f582740839f583e055fd
:100870000c603c1204e875841b758500750c00e55e
:100880000cc3941050357980ac84ad85aa0aab0bab
:10089000120226e50a2420f50ae50b3400f50be5e3
:1008a000842480f584e5853400f585050c80d0e549
:1008b0000a2400f50ae50b3402f50b050880829046
:1008c0000844e06008900841e0f91203d375c908b4
:1008d00080fe5392fe2274fa12015915181518ea77
:1008e000feebffa818eef208eff2aa18ab9379011d
:1008f0001208d280ee12009322c084c0858c848db1
:10090000858a828b83a818e2fc08e2801243920158
:10091000e00592f0a30592a3ec24ff1ced34fffd4b
:10092000ec4d70e9d085d0845392fe22ffffffff8b
:10093000ffffffffffffffffffffffffffffffffc7
:10094000ffffffffffffffffffffffffffffffffb7
:10095000ffffffffffffffffffffffffffffffffa7
:10096000ffffffffffffffffffffffffffffffff97
:100f000012010002000000205824feff0000010230
:100f1000030109021b0001010480250904000000ef
:100f2000fe01020409210d03e84000010104030948
:100f300004120342006c00750065006700690067d9
:100f400000610016034c006f007700200045006e22
:100f50000065007200670079000a03310032003337
:100f6000003400080344004600550000ffffffff67
:100f7000ffffffffffffffffffffffffffffffff81
:100f8000ffffffffffffffffffffffffffffffff71
:100f9000ffffffffffffffffffffffffffffffff61
:100fa000ffffffffffffffffffffffffffffffff51
:100fb000ffffffffffffffffffffffffffffffff41
:100fc000ffffffffffffffffffffffffffffffff31
:100fd000ffffffffffffffffffffffffffffffff21
:100fe000ffffffffffffffffffffffffffffffff11
:100ff000ffffffffffffffffffffffffffffffff01
:101000000210f70233baffffffffff02274bffff7b
:10101000ffffff0227e2ffffffffff022896ffff0f
:10102000ffffff022981ffffffffff023c0effffd2
:10103000ffffffffffffffffffffff02283affff59
:10104000ffffff0227bbffffffffffffffffffffc9
:10105000ffffff0233a0ffffffffffffffffffffc8
:10106000ffffffffffffffffffffff0226ccffff99
:10107000ffffff022909ffffffffff022711ffff0c
:10108000ffffff0233c57582f17583dc7402121114
:1010900012121133b900030210e1e479347802b876
:1010a00000028004f709d8fce490030278b57906c1
:1010b0008002f0a3d8fcd9fa9008b6aa82ab83903c
:1010c000113978d179028015e493a3ac82ad838a7b
:1010d000828b83f0a3aa82ab838c828d83d8e9d9db
:1010e000e775823e7583d874021211127582e3751a
:1010f00083dc740212111275d00075813f753100c6
:10110000753202753303759f007593005392fe028a
:101110001091c09ff59fe473d09f225392fed0831d
:10112000d082c09fe493c0e0740193c0e074029346
:10113000f59f2279015392fe22163d203d2a3d342f
:101140003d3e3d483d523d5c3d663d703d7a3d84af
:101150003d8e3d983da23dac3db63dc03dca3dd41f
:101160003dde3de83df23dfc3d063e103e1a3e248c
:101170003e2e3e383e423e4c3e563e603e6a3e74f7
:101180003e7e3e883e923e9c3ea63eb03eba3ec467
:101190003ece3ed83ee23eec3ef63e003f0a3f14d5
:1011a0003f1e3f283f323f3c3f463f503f5a3f643f
:1011b0003f6e3f783f823f8c3f963fa03faa3fb4af
:1011c0003fbe3fc83fd23fdc3fe63ff03ffa3f041f
:1011d000400e40184022402c40364040404a405487
:1011e000405e40684072407c40864090409a40a4f7
:1011f00040ae40b840c24000800100010000000045
:101200008000007f1585158b15911597159d15fb91
:1012100014b71699161d1705170b178b1b4918893c
:101220001dc1181717bd1639162317f514b403017d
:10123000ffffff0000000080ffffffff0400000031
:1012400000000000c0000000030000020000c11800
:101250000102030000411a00000f00c3a88ee8b18c
:101260009dcf7f5eb98b9f41efb055f401fa009698
:101270000064004b0032001e001400d6be898e00b0
:101280000106021213151429417671ffc1fbe84cc7
:1012900090728be7b3518963ab232302841872aa3f
:1012a000612f3b51a8e53749fbc9ca0c18532cfde7
:1012b00045e300400000fffffffffaffffff0000d3
:1012c0008000620000000700000005000600070023
:1012d0000000010001000001000102020300020001
:1012e00000000000020201000240420f001900004d
:1012f00000093d0000e4fffffffb349b5f8000001e
:1013000080001000000000000012111b05c5021231
:10131000111b1bc50212111ba3c50212111b34c6df
:101320000212111bdcd50112111bf1d50112111b88
:1013300000d60112111bf1d60112111b09d701129f
:10134000111b18d70112111b2ed70112111b3ad7ee
:101350000112111b7cd70112111ba9d70112111bfd
:10136000fbd70112111b29d80112111b93d80112ae
:10137000111bafd80112111bead80112111b19d988
:101380000112111bacd90112111b22da0112111b1f
:101390007ada0112111bb3da0112111b05db0112fb
:1013a000111b40db0112111b6bdb0112111bc6db91
:1013b0000112111b0adc0112111b35dc0112111b79
:1013c00085dc0112111be0dc0112111be3dc0112b0
:1013d000111b41dd0112111b78dd0112111bb0dd63
:1013e0000112111be8dd0112111b1fde0112111b7e
:1013f00049de0112111b52de0112111b9dde01128a
:10140000111bbbe00112111b1fe20112111b5ce258
:101410000112111b9ce20112111bc9e20112111be6
:1014200015e30112111b40e30112111bcee301125f
:10143000111b7ee40112111bcde40112111b2de5dd
:101440000112111b38e50112111b65e50112111b78
:1014500070e50112111b0fe60112111ba6e6011225
:10146000111bf0e60112111b24e70112111b42e7c8
:101470000112111b64e70112111b89e70112111bf4
:10148000a5e70112111b1be80112111b5be80112f9
:10149000111bd6e80112111bece80112111b16e911
:1014a0000112111b4ce90112111b5be90112111b06
:1014b000a8e90112111bb7e90112111bcfe90112b2
:1014c000111bf8e90112111b28ea0112111b55ea40
:1014d0000112111b68ea0112111ba0ea0112111b73
:1014e0000beb0112111b3ceb0112111b69eb0112fa
:1014f000111b75eb0112111b7beb0112111b10ec80
:101500000112111b86ee0112111b0bef0112111bb0
:1015100031ef0112111b57ef0112111b8def011258
:10152000111bc5ef0112111b0af00112111b4ef025
:101530000112111b92f00112111b11f10112111b6a
:1015400076f10112111bd0f10112111b4bf20112a5
:10155000111babf20112111b5df30112111b21f4df
:101560000112111b17f50112111b1af50112111ba3
:101570002ff50112111b44f50112111b0ad402129e
:10158000111b58d40212111b6ed40212111b84d4e9
:101590000212111b9ad40212111bbbd40212111b8e
:1015a000d1d40212111be7d40212111ba7aa0212f6
:1015b000111beeaa0212111b31ab0212111b4fab11
:1015c0000212111bc7ab0212111b38ac0212111b05
:1015d00070ac0212111bceac0212111be9ac02124c
:1015e000111b16ad0212111b74ad0212111b8bad33
:1015f0000212111badad0212111bd8ad0212111b4c
:101600000dae0212111b39ae0212111b72ae021284
:10161000111b99ae0212111bccae0212111bdbaed4
:101620000212111be4ae0212111b5aaf0212111b5f
:1016300082b00212111b86bb0212111b60bc021287
:10164000111b43bd0212111bdbbd0212111b46be52
:101650000212111b70be0212111bb9be0212111b25
:1016600006bf0212111b4ebf0212111b1cc0021238
:10167000111b33c00212111b4ac00212111b5ed78c
:101680000212111b8bd70212111b00800212111bb8
:10169000a7800212111ba28c0212111b718e021262
:1016a000111b59d00212111bc1d00212111be5d01f
:1016b0000212111b34d10212111b89d10212111b0b
:1016c00030d20212111b49d20212111b039b0212cb
:1016d000111b209b0212111b3b9c0212111b9c9c94
:1016e0000212111b479d0212111bc69e0212111bf2
:1016f0004e9f0212111b959f0212111bfe9f021298
:10170000111b5ca00212111bb1a00212111b2ca113
:101710000212111bbda10212111b46a20212111bc3
:10172000f2ff0112111bf6ff0112111bf8ff01124b
:10173000111bfeff0112111bd7a20212111befa2f7
:101740000212111b1aa30212111b67a30212111b12
:1017500080a30212111bb2a30212111bf0a30212ea
:10176000111b22a40212111b99a40212111bb8a46e
:101770000212111bdda40212111b34a50212111b4f
:10178000cba90212111b7faa0212111beed9021261
:10179000111b06da0212111b77da0212111bbadad8
:1017a0000212111b5ec00212111bb7c00212111be4
:1017b0001fc10212111b37c10212111b61c102129b
:1017c000111b7bc10212111bafc10212111b05c2fa
:1017d0000212111b40c20212111bf0c20212111b95
:1017e00014c30212111b9cc30212111bc7c30212a5
:1017f000111b09c40212111b2ec40212111b42c478
:101800000212111b57c40212111bffc40212111b3a
:101810003fb60212111b4db60212111b7eb6021208
:10182000111ba7b60212111bb5b60212111bfcb692
:101830000212111bbbb70212111b30b80212111b8e
:101840008db80212111bb9b80212111b32b9021263
:10185000111b0eba0212111b19ba0212111b3eba49
:101860000212111b92ba0212111bf8ba0212111bba
:101870002abb0212111bccdb0212111becdb021281
:10188000111b15dc0212111be8da0212111bfcda23
:101890000212111b53db0212111b7ddc0212111b01
:1018a000ccdc0212111b6fff0112111b9cff0112f5
:1018b000111b59f50112111bc0f50112111bd7f5af
:1018c0000112111b1bf60112111b61f60112111bf3
:1018d000c7f60112111b1bf80112111b43f901126b
:1018e000111be5f90112111b09fa0112111b4bfa28
:1018f0000112111bf9fa0112111b47fb0112111bf6
:10190000a4fb0112111bb7fb0112111bb7fc011242
:10191000111bd7fd0112111b4dfe0112111bfe45bb
:101920000012111ba9470012111b26480012111b9f
:1019300079490012111beb490012111b254a0012b4
:10194000111bde4a0012111b6c4b0012111b2f4c95
:101950000012111b574d0012111b4b4e0012111b90
:101960008c4f0012111bf44f0012111b5c5000121f
:10197000111bd9500012111b8f510012111b015263
:101980000012111b9a520012111b00530012111b5e
:101990006e530012111bc3530012111b5954001235
:1019a000111b0c550012111bd3550012111b90571f
:1019b0000012111bdb590012111b205a0012111bbf
:1019c0009c5a0012111b045b0012111b525b001287
:1019d000111bde5c0012111b7e5d0012111bef5dfe
:1019e0000012111b6f5f0012111bd05f0012111b40
:1019f000e6600012111bd5610012111bf16200128a
:101a0000111b50640012111b07660012111bb768ee
:101a10000012111b44690012111b016a0012111bf4
:101a2000ee6a0012111b526b0012111bae6f0012f6
:101a3000111b14720012111be6720012111b5c754f
:101a40000012111b7e760012111b09780012111b67
:101a500020780012111bb2c80212111bf0c802122a
:101a6000111b57c90212111b83c90212111b4fca45
:101a70000212111b26cb0212111bdcd80212111b01
:101a800035d90212111b96d90212111b00800112c6
:101a9000111b1e800112111b3b800112111b58806b
:101aa0000112111bda800112111b6d810112111b31
:101ab0003f830112111ba5830112111be98301123f
:101ac000111b26840112111b5b840112111b9d84c2
:101ad0000112111b0b850112111bb9850112111b7b
:101ae000d1850112111b0d870112111b35890112bd
:101af000111bc1890112111bf5890112111b1c8bcd
:101b00000112111b478c0112111b6e8c0112111b4b
:101b1000aa8c0112111bdd8c0112111bc590011240
:101b2000111bed900112111b39910112111bc2966c
:101b30000112111b08970112111b48970112111b6a
:101b4000fe970112111bd5980112111b339b011234
:101b5000111b959c0112111b069d0112111b319f37
:101b60000112111ba99f0112111bed9f0112111be4
:101b700051a00112111ba4a00112111b40a10112be
:101b8000111b89a10112111be4a10112111beea16d
:101b90000112111b2ba30112111bbea30112111b59
:101ba0008aa40112111b36a50112111be7a601120e
:101bb000111b09a70112111b26a90112111b7baad7
:101bc0000112111b18ab0112111b69ab0112111b81
:101bd00001ac0112111bf1ad0112111b02ae011279
:101be000111b0cae0112111bfbaf0112111b58b0df
:101bf0000112111b95b00112111b00b10112111b32
:101c00002fb10112111bd8b10112111b53b20112d5
:101c1000111bb4b20112111b2ab30112111b61b3c3
:101c20000112111b96b30112111bb4b30112111b47
:101c300013b40112111b21b40112111b60b4011263
:101c4000111bd1b40112111bbad50212111b5ed6a1
:101c50000212111b82d60212111bcdd60212111bc9
:101c60000cd70212111be27f0012111b0b8f021204
:101c7000111b378f0212111b838f0212111bd08f81
:101c80000212111b4c900212111bb1920212111b75
:101c9000e5930212111b6d960212111b4b97021253
:101ca000111b4f980212111b4c990212111bbd9966
:101cb0000212111bd19a0212111b6ccb0212111bc2
:101cc00098cb0212111bafcb0212111b49cc02128e
:101cd000111b75cd0212111b9db50112111b04b60b
:101ce0000112111b21b60112111b4eb60112111b5c
:101cf000b7b60112111be3b60112111b17b701127f
:101d0000111b6fb70112111b9cb70112111bffb7fa
:101d10000112111b5ab80112111b1fb90112111b1c
:101d20009db90112111b3fbb0112111bf7bb011220
:101d3000111baebe0112111b26c20112111b68c27b
:101d40000112111bbdc20112111b75c30112111b1f
:101d500052c50112111bf6c50112111b37c6011223
:101d6000111b85c60112111bddc60112111b03c711
:101d70000112111b56c70112111b97c70112111b2b
:101d800018c90112111b32ca0112111b43ca0112d8
:101d9000111ba1cb0112111bb7cb0112111bdfcb01
:101da0000112111b7ecc0112111b93cc0112111bcd
:101db000c5cc0112111bddcd0112111ba0ce0112e9
:101dc000111becce0112111b31cf0112111be4cffc
:101dd0000112111b3fd00112111b4cd10112111b1a
:101de000a0d10112111be4d10112111b2ed301123b
:101df000111b43d50112111b73d50112111b53d2b4
:101e00000212111b60d20212111b83d20212111b8b
:101e1000c6d30212111bd3d30212111b01d402121a
:101e2000111ba6b00212111b16b10212111b43b1f5
:101e30000212111b92b10212111bafb10212111b3f
:101e40007ab20212111b24b40212111b82b40212c4
:101e5000111b90b40212111b97b50212111b00b690
:101e60000212111b187f0012111b467f0012111b5a
:101e7000767f0012111b17ce0212111ba4ce021284
:101e8000111bd6ce0212111b47cf0212111bebcf32
:101e90000212111bfecf0212111b86100012111b21
:101ea0005fdb0212111b2adc0212111bb37f00e060
:101eb00066701008a3e066700a08a3e06670040864
:101ec000a3e06622c3e7960809e7960809e79608a3
:101ed00009e796a2d265d03322c3e09608a3e09624
:101ee00008a3e09608a3e096a2d265d03322c021d1
:101ef000c3e096f52108a3e096422108a3e09642ac
:101f00002108a3e0964221a2d265d033e5217001d9
:101f1000d3d02122c3e7960809e7960809e7960877
:101f200009e79622c3e09608a3e09608a3e0960886
:101f3000a3e09622c021c3e096f52108a3e09642d3
:101f40002108a3e096422108a3e09645217001d321
:101f5000d02122080808eac0e0ebc0e086f0e7a440
:101f6000fa180986f0e7a42afa180986f0e7a42ae5
:101f7000fa180986f0e7a42afa1986f0e7a4fbe527
:101f8000f02afa190886f0e7a42bfbe5f03afa19d3
:101f90000886f0e7a42bfbe5f03afa18180986f05a
:101fa000e7a4c5f02bfbe43afa1908e7c5f0c6a48c
:101fb00026f6e5f03bfbe43afa1886f0e7a4f6e5ee
:101fc000f00826f6e43b08f6e43a08f6d0e0fbd049
:101fd000e0fa22e4cfc0e0e4cec0e0e4cdc0e0e42b
:101fe000ccc0e075f020c3e633f608e633f608e629
:101ff00033f608e633f6181818ec33fced33fdee33
:1020000033feef33ffc3ec9709ed9709ee9709ef25
:1020100097191919400fffec97fc09ed97fd09ee90
:1020200097fe191906d5f0beecf709edf709eef7a2
:1020300009eff7191919d0e0fcd0e0fdd0e0fed08f
:10204000e0ff221220ab181818121fd312209a1981
:1020500019192212209a191919080808e6181818cf
:1020600020e7e0121fd31220ab1818182209090923
:10207000e719191920e7dc080808e618181820e7fe
:1020800003021fd31220ab181818121fd31220ab53
:1020900018181812209a19191922e4c397f709e49d
:1020a00097f709e497f709e497f722e4c396f6084f
:1020b000e496f608e496f608e496f6226017080817
:1020c00008c6a2e713c618c613c618c613c618c694
:1020d00013c6d5e0e9226016080808c6c313c6185f
:1020e000c613c618c613c618c613c6d5e0ea2270b2
:1020f00009080808226016181818c6c333c608c68f
:1021000033c608c633c608c633c6d5e0ea22e6277a
:10211000f60809e637f60809e637f60809e637f65d
:1021200022e026f608a3e036f608a3e036f608a378
:10213000e036f622e026f008a3e036f008a3e03609
:10214000f008a3e036f022c3e697f60809e697f612
:102150000809e697f60809e697f622c3e0c696f660
:1021600008a3e0c696f608a3e0c696f608a3e0c664
:1021700096f622e056f608a3e056f608a3e056f6d7
:1021800008a3e056f622e647f60809e647f60809ee
:10219000e647f60809e647f622e046f608a3e046d9
:1021a000f608a3e046f608a3e046f622e046f0086b
:1021b000a3e046f008a3e046f008a3e046f022e0e2
:1021c00066f608a3e066f608a3e066f608a3e066f4
:1021d000f622e0f608a3e0f608a3e0f608a3e0f68e
:1021e00022e493f608740193f608740293f60874d7
:1021f0000393f622e6f008a3e6f008a3e6f008a3ae
:10220000e6f022e0faa3e0fba3e0fca3e0fd22ea73
:10221000f0a3ebf0a3ecf0a3edf022cac0e0e6f0ef
:10222000a308dafad0e0fa22cac0e0e0a30592f0ef
:10223000a30592daf6d0e0ca22cac0e0e493a3056f
:1022400092f0a30592daf5d0e0ca225392fefae9a1
:10225000fb7921e7f0a309dafae8f0a3ebf9f0a3a0
:10226000ecf0a3edf0a3eef0a3eff0a3e520f0a3d4
:10227000e5f0f0a3e592f0a3e584f0a3e585f0a3f3
:10228000e581f0a3e531f0a3e532f0a3e533f0a357
:10229000d0e0fad0e0f0a3caf0eac0e0e0c0e07a13
:1022a000007b00225392fecac0e0ebc0e07921e03f
:1022b000f7a309dafae0f8a3e0f9a3e0fca3e0fd54
:1022c000a3e0fea3e0ffa3e0f520a3e0f5f0a3e088
:1022d000c0e0a3e0f584a3e0f585a3d0e0f592d0bb
:1022e000e0fbd0e0fae0f581a3e0f531a3e0f532c0
:1022f000a3e0f533a3d0e0d0e0e0c0e0a3e0c0e08d
:10230000ea4b70027a0122b90010bb0008e88af09b
:1023100084f8aaf022e4fbc8fa22eb70227b10c8f2
:1023200033c8c933c9335007c39ac3dbf280069a56
:1023300050012adbeac833f4c8c933f4c9fa22755c
:10234000f008e4c833c8c933c933c99ac99b5004db
:10235000c92ac93bd5f0ecfbc833f4c8e4c9fa225a
:10236000600d08c6a2e713c618c613c6d5e0f3224f
:10237000600c08c6c313c618c613c6d5e0f4227095
:102380000422600d18c6c333c608c633c6d5e0f4b0
:102390001822253210af08f532400215338008f5b7
:1023a0003240021533d2af22c0d0253210af08f52b
:1023b00032500205338008f53250020533d2afd0d7
:1023c000d0222532f58210af08f532400215338055
:1023d00008f53240021533d2af85338322c58225fa
:1023e00032c582c583353310af07f533858232801d
:1023f00007f533858232d2afc583222532f582e4d8
:102400003533f583222532f584e43533f58522e42e
:10241000735392fe2532c582c0e0e53334ffc58395
:10242000c0e0e532c3958224f810af088583338578
:1024300082328008858333858232d2afcef0a3e525
:1024400020f0a37821e608f0a3defaeff0a3e581ff
:1024500024faf8e608f0a3e608f0a3e608f0a308db
:1024600008e608f0a3e608f0a315811581d0e0fe88
:10247000d0e0f8158115811581e8c0e0eec0e022ba
:102480005392fe2532c582c0e0e53334ffc583c0d8
:10249000e0e532c3958224f910af08858333858245
:1024a000328008858333858232d2afcef0a3e52017
:1024b000f0a37821e608f0a3defaeff0a3e581248b
:1024c000fbf8e608f0a3e608f0a30808e608f0a386
:1024d000e608f0a315811581d0e0fed0e0f8158163
:1024e0001581e8c0e0eec0e0225392fe853383857b
:1024f0003282e0a3fee0a3f5207821e0a3f608df16
:10250000fae0a3ffe0a3c0e0e0a3c0e0e0a3c0e0e6
:10251000e0a3c0e0e0a3c0e010af0885823285836d
:10252000338008858232858333d2afd083d0825303
:1025300092fe0211185392fe853383853282e0a306
:10254000fee0a3f5207821e0a3f608dffae0a3ff80
:10255000e0a3c0e0e0a3c0e0e0a3c0e0e0a3c0e0ef
:1025600010af088582328583338008858232858367
:1025700033d2afd083d0825392fe22c0925392fec8
:10258000c0d02532c582c0e0e53334ffc583c0e04a
:10259000e532c3958224f210af08858333858232f9
:1025a0008008858333858232d2afc8f0a3e9f0a3d7
:1025b000eaf0a3ebf0a37921e709f0a3d8faecf055
:1025c000a3edf0a3eef0a3eff0a3d0e0f0a3d0e0f2
:1025d000f0a3d0e0f0a3e520f0a3e5f0f0a3d0e075
:1025e000f0225392fe853383853282e0c0e0a3e07f
:1025f000f9a3e0faa3e0fba37821e0f608a3dffa51
:10260000e0fca3e0fda3e0fea3e0ffa3e0c0e0a3a5
:10261000e0c0e0a3e0f5d0a3e0f520a3e0a3f5f04f
:10262000e0a3c0e010af088583338582328008853f
:102630008333858232d2afd0e0d082d083f592d07e
:10264000e0f8d0e032e584f0a3e585f022e0a3f5e0
:1026500084e0f5852274048006740280027401c04f
:10266000e0f4041223c2d0e012221b22740480067c
:10267000740280027401c0e0f4041223c2d0e0129c
:10268000222822d083d082e9c0e0e493a3c386f05d
:10269000c5f095f0f908e493a386f0c5f095f070c5
:1026a0000be493a3c3994005e9048002a3e475f009
:1026b00002a42582f582e5f03583f583d0e0f9e4c4
:1026c00093a3c0e0e493c0e022ffffffc0e0c0d0ce
:1026d00075d018c092c082c083c0f0123cc3900372
:1026e0008512220fe58955ab900389f0e5809003b0
:1026f0008cf07b007a007906121e49900389e0f481
:10270000f589c2c5d0f0d083d082d092d0d0d0e0ad
:1027100032c0e0c0d075d008c092c082c083c0f083
:10272000123cc390038512220fe58a558d90038acf
:10273000f0e59090038df07b017a007906121e4936
:1027400090038ae0f4f58ac2eb80b9c0e074f1121c
:10275000257b9061a9e4f0900393e0640f7012e58b
:10276000c7f89006a8e0f5c790ff1ce0f4f5ae8826
:10277000c7e5bbf9e5bafae9fb900393e0c333f888
:10278000e433f9749428f582740339f583eaf0a3ed
:10279000ebf0900393e02410fb7a007906121e49b7
:1027a000e5a8f8c2af900813e0c2e2f0753400e883
:1027b000a2e7a2e792af7f010225e2c0e0c0d07598
:1027c000d018c092c082c083c0f0e5d1f875d100a6
:1027d000c2c0a2e350097b037a007904121e4902a9
:1027e0002704c0e0c0d075d008c092c021c022c06c
:1027f00082c083c0f05392fe9005721228fb602bba
:1028000090052de0700c7401f07b007a00790412c1
:102810001e49ee900572f0e5c1c0e074742521f503
:102820008274053400f583d0e0800be5c4a2e65045
:102830000690052c7401f00228eac0e0c0d075d0e3
:1028400008c092c021c022c082c083c0f0c2e95338
:1028500092fe90052fe0fa90052ee09a543ff86022
:10286000258a2174302521f5827405122965900589
:102870002ff089c1900570e06870197b027a0079a9
:1028800004121e49800ee5a8f8c2af900813e0c2fa
:10289000e31229718054c0e0c0d075d008c092c046
:1028a00021c022c082c083c0f05392fe9005fc126a
:1028b00028fb602a9005b7e0700b7401f07b00faea
:1028c0007904121e49ee9005fcf0e5f9c0e074feb3
:1028d0002521f58274053400f583d0e0800be5fbfb
:1028e000a2e650069005b67401f0d0f0d083d082f5
:1028f000d022d021d092d0d0d0e032e0f5217401a6
:102900002521543ffea3e06e22c0e0c0d075d00860
:10291000c092c021c022c082c083c0f0c2ea5392dc
:10292000fe9005b9e0fa9005b8e09a543ff86025aa
:102930008a2174ba2521f58274051229659005b99a
:10294000f089f99005fae06870197b027a01790440
:10295000121e49800ee5a8f8c2af900813e0c2e449
:1029600012297180853400f583e0f974012a543fff
:1029700022f0753400e8a2e7e433f9e8a2e792af69
:1029800022c0e0c0d075d008c092c082c083c0f021
:10299000759800e5a8f8c2af5392fe900813e0d2f4
:1029a000e1f0753400e8a2e7e433fee8a2e792af75
:1029b000121777d0f0d083d082d092d0d0d0e0322e
:1029c000c082c0835392fe906059e0f89007e3e024
:1029d00028f0906058e0f89007e4e028f090605a02
:1029e0001229f990605e1229f990605ce0f8900776
:1029f000e6e028f0d083d08222e0f89007e5e028d6
:102a0000f022c082c0835392fe9007e3e4f0a3f06b
:102a1000a3f0a380de74f71224807900121dfb90ce
:102a2000072f12324eeac398f8eb99f9e82404fe16
:102a3000e93400ff90073ce0fca3e0fdc3ee9cef0f
:102a40009d402e90073ae0fca3e0fd90073ee02a6f
:102a5000f8a3e03bf9e8c39cf8e99df990072f1231
:102a60003245a3ecf0a3edf090073cecf0a3ed8031
:102a70002390072f122f1b90073c12304290073ce7
:102a800012324e900731123245900738e0700474cc
:102a900002800114f07a2d7b07123a54023aa7748f
:102aa000f7122480e9600924fe601d14601a803248
:102ab000900736e0a2e35009900739e060241480c3
:102ac00020c2e2f0d2e38019900736e0a2e2500c77
:102ad000900739e06408600ae0048005c2e3f0d2a0
:102ae000e2f0900737e0700890073574fff08048f7
:102af00090600a122f13703d90618fe0c0e0900744
:102b000039e0f87408c398f8d0e0b800028004c334
:102b100013d8fcf52174ff6521700990600ae4f078
:102b2000a3048010e5212401f8e43400f990600a40
:102b3000e8f0a3e9f0122a15023aa774f7122480ec
:102b4000e924fc600624fe6029800d9007fce06407
:102b500001705f121b55805a900756e06401701295
:102b6000900750e4f07b09123317fa7900121e49de
:102b70008040900750e0700890074e74fff080325c
:102b80007900121dfb8a218b22a821a922900752cd
:102b9000e028faa3e039fb90618fe0541ff8ea289f
:102ba000f8eb3400f99007481232457a467b071259
:102bb0003a54023aa774f712248074fe1223c21208
:102bc00026459007a012324ee82412fae93400fba1
:102bd00090605ce060088a828b83e0d2e1f0e824b8
:102be00030fce93400fde82432f584e93400f58551
:102bf00090605ae0700690605ee060368a828b8357
:102c0000e0a2e14019d2e1f0e82422f582e9122e97
:102c1000f8122f0b12237f8c828d83123a4ce4051d
:102c200092f0a3f079008532828533835392fe02bd
:102c30003a9fe8241ef582e9122efffea3e0ff85ed
:102c40008482858583e02ef0a3e03ff08c828d8323
:102c50000592e0fca3e0fdc30592e09ca3e09d503b
:102c6000c388828983a3a3a3a3a3a3a3a3a38582c9
:102c7000848583858a828b83e0a2e1500474088076
:102c800002743e0592f07b02888289830592a3a399
:102c9000a3a3a3a3a3a3e0fa7900121e497901809c
:102ca0008574f512248074fe1223c2122645122f59
:102cb00003240a122ee7fc7003022ecfee242e12fc
:102cc000371012324e8e828f83a3a3a3a3a3a3a394
:102cd000a38582238583248e828f83a3a3a3a3a3aa
:102ce000a3a3a3a3aa82ab83ee2434122efc6870a4
:102cf00003a3e069701a74026c7003022e657401fc
:102d00006c607774096c60258a828b83742280558d
:102d1000ec146066147003022e6524fa601c1460c3
:102d20000c146042147003022eab022ecf90600888
:102d3000e0a2e65003022ecf802cee2439122ef5ad
:102d4000801388828983a3a3a3e064037003022e07
:102d5000cf88828983122f1370e88a828b83e06484
:102d60001370037416f07b02852382852483e0fab6
:102d70007900121e497901022ed1ee245512351424
:102d8000ee244cfcef3400fdea24fff521eb34ff88
:102d9000f522e521687003e52269706dee244d127d
:102da0002fa18e828f83122f198c828d83e0c333e3
:102db000f8e433f9e82403f8e9340012323c9007d0
:102dc000d1e0a2e050098e828f83a3a312324190fa
:102dd00007ebe4f0a3f0a3f0a37402f09007d1e0b6
:102de000a2e04003022ecf906062e4f08c828d83db
:102df000e0f875f0e2a4c8aaf075f004a42af9e896
:102e0000123231123245022ecfea687002eb69604d
:102e100003022ecf7521097522007821122659ee62
:102e2000241bfaef3400fb121ea374021223a89095
:102e300007d1e0a2e05007eefaeffb121aa1e40579
:102e400092f0ee2422123710122f0b12237fee2461
:102e500030122ef5123a4cee2432122ef5e4f0a385
:102e6000f07b08805de8240108e93400f9ee245c79
:102e7000122efc687003a3e0697054752105752259
:102e8000007821122659ee2457fcef3400fdee2481
:102e900024faef3400fb121ea374021223a8eefae8
:102ea000effb121b4fe40592f08024eefaeffb12c9
:102eb000177de40592f005929007d1e0a2e0500f53
:102ec0007b07852382852483e0fa7900121e4979e5
:102ed000008532828533835392fe12264d7402128e
:102ee00023a87f04022535f584ef3400f58505928b
:102ef000e022ee2414f582ef12350622f582ef125d
:102f0000350e229007a012385bee2212306e740349
:102f1000782122123252e84922a3a3e028f0a3e04c
:102f200039f02274f812248074fe1223c21226454e
:102f30009007a0e0f584a3e0f585122ca1e9704e7e
:102f4000122bb5e97048e584242ef582e585122e12
:102f5000ff2401f0a3e03400f0906008e0c0e0e559
:102f6000842436f582e585122ef8d0e0f0e584243d
:102f70001ef582e585122fa40592a3a3e028f0a3f5
:102f8000e039f005929007a0123517123a548532b5
:102f90008285338312264d74021223a87f010225f5
:102fa00035f582ef123506122fab22e0f8a3e0f9d7
:102fb000e8c333f8e933f92274f712248074fe125f
:102fc00023c21226458a828b83a3a3ac82ad839051
:102fd00007f0ea241ef584eb122eeaf8a3e0f9e8e4
:102fe000c333f8e933f99007d3e0f521a3e0f522e4
:102ff0001230580592e028f8a3e039f98c828d83cd
:103000001232459007eb12304b8c828d8312304286
:103010009007ed12304b7a207b4e122307882189ce
:10302000228c828d83e09521f0a3e09522f0900719
:10303000f212304be8c333f8e933f9e812322902cf
:103040003a98c3e098f0a3e099f022123252900728
:10305000d312306e12305822e88521f0a4c8aaf0ad
:103060008522f0a42afa8521f0e9a42af922e0f5c4
:1030700021a3e0f5222274f712248074fe1223c2e9
:10308000122645122f032412122ee7a2e35008c283
:10309000e3f0059202321d8e828f830592a3a385f1
:1030a0008221858322906062e060107910121dfbfe
:1030b000852182852283eaf0a3ebf0122ca1e9603e
:1030c00003023226122bb5e9600302322690600813
:1030d000e0c0e0ee2436122ef5d0e0f09061d5e0ad
:1030e000f89061d7e06805926005e0d2e28003e0e5
:1030f000c2e2f00592906062e09007ed6017e02474
:10310000c0faa3e03437fb123c989007f212386102
:103110001232298015123517123c829007f2122fb5
:10312000a7906064e028f0a3e039f0852182852231
:1031300083e024fff0a3e034fff0ee242b122efcfa
:103140009007eff0ee2420122ef5122f13604b8e15
:10315000828f83a3a3a3a3a3a3a3a3a3a3e0703af3
:10316000ee2432123514ea4b7030ee243912351445
:10317000ea4b7026e8240108e93400f99007d312dd
:10318000324585218285228312324e9007f0123219
:1031900045eefaeffb122fb880279007d37401f0a9
:1031a000a3e4f0ee241e122fa18521828522831232
:1031b0002f1b9007eb12324e85218285228312301d
:1031c000428e848f850592a3a3a3a3a3a305929007
:1031d000606412324e7a717b02122307e82405f8ec
:1031e000e93400f98584828585831232458e828f89
:1031f00083a3a3a3a3123517858482858583e0f872
:10320000c3ea98eb99a2d265d0335005eaf0a3eb5c
:10321000f012324bee242e122ef5122f1b9007a027
:10322000123517123a54023a99123231e8f0a3e9f2
:103230002224eaf8e93402f990606422f98e828f40
:1032400083a3a3a3a3e8f0a3e9f0229007d312324b
:103250005222e0f8a3e0f92274f712248074fe12df
:1032600023c2122645803bc2e5f0123305e0f80880
:10327000089007fae028f0123317c0e0123305d0a7
:10328000e0f09007fae004f0a3e004f0a3e004f01b
:103290009007fee0700c7401f07b007a0079001258
:1032a0001e4990605ae0f521906002e0a2e05004cf
:1032b0007800800590605de0f89007fbe0fae5217a
:1032c00028f8e43400f9e86a7001e960359007fafb
:1032d000e004547ff52174802521f5827460123753
:1032e000139007a0e0f8a3e0c82408f584e83400b0
:1032f000f585e0a2e70592e04003023267d2e502dd
:103300003269023a999007fae0547ff8748028f500
:10331000827460123506229007a0e0f8a3e0c8246a
:1033200008f582e812350e2274f512248074fe121c
:1033300023c2122645892105929007a0e0f582a3b9
:10334000e0f583858284858385a3a3a3a3a3a3a398
:10335000a3e0a2e740479007fde0f8906054e0c387
:1033600098f5229007fde02522f0ae82af8380120f
:10337000ee2439faef3400fb121a77ea4b6003129d
:103380001c5d85222374ff2523f5220470e2e521cc
:10339000a2e640097900eefaeffb121bcd022ed116
:1033a000c0e074f112257b8535c675a70075a100b4
:1033b0007950121e197f010225e2c0d075d0187510
:1033c000bf00d0d032c0e0c0d075d018c092c0824b
:1033d000c083c0f08535c6e591fe759b00f4f5917c
:1033e0005392fe906002e0a2e050047800800278e0
:1033f000087900e844015e6003123258eea2e550fd
:1034000004f9123328eea2e75029e5a8f8c2af90dc
:103410000813e0d2e0f0753400e8a2e7e433f9e8fd
:10342000a2e792afe594a2e24009759403e594a265
:10343000e250faeea2e640030234e0906061e0f967
:103440009007fbe4f09007fdf09007a01235178a73
:10345000828b83a3a3a3a3a3a3a3a3e0240460104c
:1034600014600814700f122a9f806d122b3b806825
:10347000121a9b80639007d0e06005146033804887
:10348000906060e064806040e0c0e0ea2413f58270
:10349000eb122ef8d0e0f0906060e0c0e09007a062
:1034a000e0f8a3e0c8242cf582e81234f4d0e080e0
:1034b00016906058e0f890605ce028f8ea242cf55b
:1034c00082eb1234f4e028f09007d1e0a2e050053e
:1034d0001230768003122f231229c0121a89800419
:1034e000a2e75003123aacd0f0d083d082d092d071
:1034f000d0d0e03212350efa74ab2af5827407127e
:10350000350622f582ef3400f58322f582ef340090
:10351000f583e022123503e0faa3e0fb2274f712f0
:10352000248074fe1223c21226459007a0e0fca35b
:10353000e0fd12324bec2429f582ed122ef8ec243a
:103540002bfaed3400fb8a848b857401687001e9e5
:103550007012e0f80592e028fac39425402a74db43
:103560002afa8024e0f521e88521f0a4f8aaf08564
:1035700021f0e9a42af90592e0fae82af8e93400f2
:10358000f97a257b00122307eaf074075af87401d0
:10359000b800028004c333d8fcfbea131313541f92
:1035a000f8ec28f8ed3400f9e82424f582e9123724
:1035b00013e05b702a8005e8cac39afaec24e5f5ab
:1035c00082ed122efff8eac39850ec8a21ec2521f7
:1035d000f8ed3400f9e824c0f582e9122efffaec88
:1035e000242cf582ed122ef8ea023a9874f6122491
:1035f0008074fe1223c2122645900757e0906002a5
:103600006004740e8002740ff0900751e090600126
:10361000f09009f812220390619512220f121bd923
:10362000900756e0f5217401652190074f7040e046
:103630005402f97a587b07121abf90074fe0a2e0b4
:1036400050097add7b0775214080077ad77b0775a3
:103650002100a2e150047e8080027e00752306785e
:103660002312265d7c587d07e5214e44018066e0eb
:10367000a2e050087add7b07784080067ad77b0786
:103680007800059290077d1226747c5e7d0774fc9d
:103690002521f5827409123713e048f9121ac5740e
:1036a000011223a8900756e0f86005740268702e96
:1036b00090074fe0a2e050087add7b077840800653
:1036c0007ad77b077800059290079d1226747c7e3e
:1036d0007d07e84404f9121ac574011223a8900763
:1036e0004fe0a2e0e433f9121ab975910090075740
:1036f000e0906182600474c8800274c0f0853282f8
:1037000085338312264d74021223a87f03022535c8
:10371000f582ef123506059222c082c0835392fed5
:10372000906002740ff0900738e004f064037002b8
:10373000e4f0e02425906000f09009f81222039054
:10374000619512220f900736e05420f9121ab9122f
:103750001bd9900736e0a2e15004d2f08002c2f0fb
:10376000a2f0e43390600cf0900736e0a2e150350f
:1037700075d90da2e55004784080027800e8440332
:10378000f5d9e0a2e550067add7b0780047ad77b85
:10379000077906121a8f740675d9001470fae5e1dc
:1037a00070fc75e19575910090618274c10229f3f6
:1037b00074f812248074fe1223c212264512384e69
:1037c000121bd9122ef212220390619512220f12af
:1037d000389412351d123866f584ef3400f585856e
:1037e000848285858312387f121bcdee2412122e1f
:1037f000fca2e250180592e0f8a3e0f58388820568
:1038000092a3a3e02402f89061d5e028f0022f8e65
:1038100074f812248012384e121bd9122ef2122282
:103820000390619512220f12389412351d123866da
:10383000122ef512387f121bcdee241e122ef51219
:10384000386124fcf8e934ff12323c022f9c9007c7
:10385000a012385b906002740ff022e0fea3e0ff3c
:1038600022122fabe822ee242c12350b906000f0d0
:10387000759100900807e0906182f0ee24392212e1
:103880003252ee2437123503e8f0a3e9f07900ee66
:10389000faeffb22ee243612350b906008f0ee248e
:1038a0001812350b906005f0ee241912350b90605c
:1038b00006f0ee241a12350b906007f090606074e9
:1038c00080f02274f112248074fe1223c212264565
:1038d0007521007522007ca77d07801b8882898363
:1038e00012385b8c828d83eef0a3eff0888289839f
:1038f000123a4c882189228c828d83122f064f70b8
:10390000398c828d83eaf0a3ebf08a828b83e4f01a
:10391000a3f0aa21ab2285328285338312264d740f
:10392000021223a87f08022535e5232527f8e52480
:103930003528f98a828b83122f19eef8eff98882e5
:103940008983a3a38a848b850592a3a3e0f523a38f
:10395000e0f5240592e0c39523f523a3e09524f533
:10396000248a828b83a3a3a3a3a3a3e0f525a3e0ca
:10397000f526c3e5239525e5249526a2d265d03307
:10398000403e8a828b831232458a828b83a3a3a313
:10399000a385828485838512324ec3e52398e5246e
:1039a00099a2d265d033500d858482858583e52325
:1039b000f0a3e524f08c828d83eaf0a3eb023911a9
:1039c00088828983a3a3a3a3a3a3e0f527a3e0f59b
:1039d00028c3e49527f525e49528f526c3e5259524
:1039e00023e5269524a2d265d03350288a828b8382
:1039f000a3a3a3a3a3a3a3a3e0a2e750030239298f
:103a000088828983a3a3a3a3a3a3a3a3e0a2e750cf
:103a1000030238dc88828983a3a3a3a385828485db
:103a20008385c3e49523fce49524fd12385bc3ec45
:103a30009eed9fa2d265d033500b8584828585830d
:103a4000ecf0a3edf0e8fce9fd0238f7e521f0a386
:103a5000e522f02274f712248074fe1223c212268b
:103a600045ea4b6031a2afe433fec2af1238c38add
:103a7000828b838016aa82ab8385828485838505a9
:103a800092e0f582a3e0f5831238c3e582458370a6
:103a9000e4eea2e092af8001f0853282853383129a
:103aa000264d74021223a87f0202253574f51224d4
:103ab000807900121dfb8a238b247977121e1990be
:103ac00061b1e4f0e070f87403f0e0640370f89022
:103ad00007a712324e9007a0123245e84970121221
:103ae0003bf1e594a2e24003023beb759400023bfc
:103af000eb888289831235179007a7eaf0a3ebf0d1
:103b000088828983a3a312306e88828983a3a3a3aa
:103b1000a3e02521faa3e03522fbea24fdfeeb34e5
:103b2000ffff88828983a3a3a3a3a3a3a3a3e02465
:103b300004601214600514600780471235ec80524f
:103b4000123719804de521c39523e5229524c394ae
:103b500000a2d265d0335025e5232401f521e524c8
:103b60003400f522c3e5219ee5229f400ae5212489
:103b700001fee5223400ff90072f123a4c121bdfa2
:103b800080109007d1e0a2e050051237b0800312f8
:103b90003810aa21ab227930121e0deefaeffb7914
:103ba00040121e0d7954121e19e521c39523f8e524
:103bb000229524f9c3e89401e99400a2d265d03398
:103bc000500c121bf1e5e170fc75e121801d90069f
:103bd000a7e0a2e04012aa21ab22121e079007e73d
:103be00012220f123bf18003121bf1121ccf022e86
:103bf000e2e5a8f8c2af900813e0c2e0f075340027
:103c0000e8a2e7a2e792af22853487c2af22c0e0e4
:103c1000c0d075d018c092c082c083c0f074fc12ae
:103c200023925392fe900814e0601c121ab390067f
:103c3000a7e054117008e5c654384487f5c69008cb
:103c400014e4f0c2c78026c2c7853282853383aab6
:103c500082ab83121bebe9640170129008147401ab
:103c6000f0853282853383122203121cc37534001f
:103c700074041223a8d0f0d083d082d092d0d0d0b8
:103c8000e03275c3007420c39afa744e9bfbeaf5c8
:103c9000a2ebf5a35392fe22c02175c301e5a2f564
:103ca00021e5a375c300f9e5212420f8e9344ef994
:103cb000e8c39af8e99bf9e8f5a2e9f5a3d0215306
:103cc00092fe22c082c08374fc122392e5a8f8c23f
:103cd000afe5958532828533835392fef0e596c039
:103ce000e074011223fbd0e0f0e597c0e07402120b
:103cf00023fbd0e0f0e8a2e7a2e792af740312231f
:103d0000fbe4f0853282853383122203740412238c
:103d1000a8d083d082220001000002000000c3135b
:103d20000000000100000000ed1300000002000090
:103d3000000005140003000324000000e11300024a
:103d4000000404000000e71300000005000000006c
:103d5000351400000006000000009b140005000759
:103d6000260000004d140000000800000000d714d9
:103d700000020009820000002f140007000a2a0038
:103d80000000dd140007000b2a000000e31400000f
:103d9000000c00000000e9140002000d22000000e9
:103da00023140003000e2202000029140000010069
:103db0000000000047140000010100000000cb14c7
:103dc00000000102000000003b1400030103840016
:103dd0000000591400020104040000005314000202
:103de000010504000000411400010106020000006a
:103df000f3130005010786000000f9130005010810
:103e000026000000ff130004020024080000a7148d
:103e100000040201440000007b13000202020400bf
:103e20000000811300030203220800006f13000248
:103e300002042200000075130001030002000000cc
:103e40005d130001030102000000d1140009030208
:103e50004244040057130001030302000000db1377
:103e60000001030402000000c913000203058200e0
:103e70000000cf130001030602000000d51300016b
:103e80000307020000005113000203088200000033
:103e900021130008040042440800631300060401d3
:103ea000428400008713000604024284000093133a
:103eb00000050403420400008d13000304044200c3
:103ec000000099130004040542080000a513000433
:103ed000040642080000bd130001040702000000b0
:103ee000691300030408420000009f130006040940
:103ef00042840000ab130002040a22000000b11348
:103f00000002040b82000000b7130002050022002b
:103f100000001d140001050102000000ad140001a5
:103f2000050202000000b91400030503220200008c
:103f3000b3140005050462000000bf14000005056d
:103f4000000000009514000105060800000065143b
:103f500000020600220000005f1400020601220099
:103f60000000711400010602020000007714000f27
:103f700006032a44440089140000060400000000df
:103f80008f1400080605444400007d140003060653
:103f900022020000831400050607440200001114e9
:103fa00000050608440200001714000206098200fa
:103fb00000000b140007060a2a0000006b1400031f
:103fc0000700220200001315000607012602000068
:103fd0001f15000307022202000019150002070343
:103fe00022000000251500020704220000002b1506
:103ff0000003070522020000311500030706220214
:104000000000371500020707220000003d150006da
:104010000708222222004f15000207098200000033
:1040200055150003070a2202000043150003070b81
:104030002208000049150001070c02000000a1142d
:104040000005070d224200005b150002070e22004a
:10405000000007150002070f220000000d150003e5
:1040600008002202000033130001080102000000d2
:10407000391300000802000000003f13000008038d
:1040800000000000451300000804000000004b136e
:1040900000010805080000002d13000108060200b9
:1040a0000000271300010900020000006115000450
:1040b0000901060000006715000109020800000060
:1040c0006d150000090300000000731500000000da
:1040d00000000000ef140000000100000000ef14d9
:1040e000000600020a000000ef14000200030400b2
:1040f0000000ef140003000424000000ef1400058a
:10410000000522220200ef14000100060200000058
:10411000ef140005000786000000ef14000c0008f3
:1041200044442402ef140002000904000000ef14cc
:104130000002000a04000000ef140002000b04005b
:104140000000ef140000000c00000000ef1400035a
:10415000000d84000000ef140002000e04000000b7
:10416000ef140000010000000000ef140000010146
:1041700000000000ef140000010200000000ef1436
:104180000002010304000000ef1400030104840096
:104190000000ef140000010500000000ef14000211
:1041a000010604000000ef140002010704000000f3
:1041b000ef140001010808000000ef1400020200e3
:1041c00004000000ef140007020144840000ef1413
:1041d0000005020244080000ef1400000203000082
:1041e0000000ef140000020400000000ef140003c0
:1041f000030042000000ef1400020301320000003f
:10420000ef140003030242000000ef140003030355
:1042100042000000ef140002030482000000ef14cb
:104220000003030542000000ef14000303064200f0
:104230000000ef140001030702000000ef1400016a
:10424000030802000000ef14000304004200000015
:10425000ef140003040142000000ef140003040205
:1042600042000000ef140003040342000000ef14ba
:104270000003040442000000ef14000304054200a0
:104280000000ef140003040642000000ef140002d7
:10429000040704000000ef140003040842000000bb
:1042a000ef140003040942000000ef140003040aa5
:1042b00042000000ef140003040b42000000ef1462
:1042c0000003050042000000ef140000050100009b
:1042d0000000ef140002050204000000ef140000cb
:1042e000050300000000ef140002050404000000b4
:1042f000ef140001050502000000ef1400000506a0
:1043000000000000ef140000060000000000ef14a1
:104310000002060104000000ef140002060204007f
:104320000000ef140003060324000000ef14000255
:10433000060404000000ef1400030605240000003a
:10434000ef140002060604000000ef140002060746
:1043500004000000ef140002060804000000ef143f
:104360000002060904000000ef140002060a04001f
:104370000000ef140002070004000000ef14000228
:10438000070104000000ef1400020702040000000f
:10439000ef140002070304000000ef1400020704fa
:1043a00004000000ef140002070504000000ef14f1
:1043b0000002070604000000ef14000407072402af
:1043c0000000ef140002070804000000ef140004ce
:1043d000070924080000ef140003070a8400000006
:1043e000ef140001070b02000000ef140000070c9f
:1043f00000000000ef140002070d04000000ef149d
:104400000002070e04000000ef140002070f040072
:104410000000ef140000080000000000ef1400008e
:10442000080100000000ef14000208020400000070
:10443000ef140000080300000000ef14000108045e
:1044400008000000ef140001080508000000ef1448
:104450000000080600000000ef1400000900000042
:104460000000ef140002090104000000ef14000234
:10447000090204000000ef14000209030400000018
:10448000ef14800c000044442402ef14800100016a
:1044900008000000ef148002000222000000ef1468
:1044a0008002000322000000ef1480040004440096
:1044b0000000ef148000000500000000ef148002ef
:1044c000000604000000ef148003010084000000d7
:1044d000ef148007020022440800ef148006020156
:1044e00042240000ef148003020224000000ef14b5
:1044f00080100300222a4424ef1480060301224482
:104500000000ef148002030282000000ef1480021a
:10451000030382000000ef14800303044200000044
:10452000ef148003040042000000ef148005040132
:1045300042040000ef148006040242840000ef14dd
:104540008007040342240800ef1480040404420896
:104550000000ef148005040542820000ef14800281
:10456000040682000000ef1480030500220800000a
:10457000ef148003050142000000ef1480050502de
:1045800062000000ef148001050302000000ef1438
:104590008004050422220000ef14800b0600232a69
:1045a0008200ef148002060122000000ef14800751
:1045b000070026220000ef1480010701020000001e
:1045c000ef148003070252000000ef14800409007a
:1045d00006000000ef1400000000000000000000d2
:1045e000b6080fd40809e60805f0080902090c1af4
:1045f000090728090b3e09105e09076c090474f0cd
:1046000012241174f0122392e5c7f5289006a8e051
:10461000f5c775211075220078211226597c1d7d61
:104620000774021223fbaa82ab83121ea374021228
:1046300023a878211226597c007d007a1d7b071261
:104640001ea974021223a87521008058852182a812
:1046500082e875f075a4faabf09006a312479c248b
:1046600074f582eb1274cfa2e050377f008f82acda
:1046700082e875f03ba4faabf090071312479c2c2c
:10468000faeb3400fbea241af582eb1274cffa74c9
:104690001d2cf58274071274cf4af00fefc39410eb
:1046a00040cb05219006a2e0f8e521c398409d7516
:1046b0002100852182a882741d28f5827407127456
:1046c000cffa853282853383e58228f582e583122d
:1046d00074cf6af00521e521c3941040d5752100ff
:1046e000852182ae827f00853282853383e5822eea
:1046f000f582e5831262dfa3a3a3a3e0f8853282eb
:10470000853383e5822ef582e5831274cf48f52246
:1047100060768f27e522a2e0505b7523018f24e5a8
:1047200027782312237fa823741d2ef58274071285
:1047300074cf58600479018002790074252ef582c7
:1047400074071274cf586004e9d2e1f98e238f24e4
:104750007403782312237f852725e5232525fae591
:10476000243400fb74a02af58274f73bf583e0fa49
:104770007b0012162d0527e522c313f522e527c37a
:1047800094085004e522708c0521e521c39408505b
:10479000030246e08528c77410024d4f1247a0223d
:1047a000e02afaa3e03bfbea2274f6122411e97531
:1047b000f03ba4faabf0121795900713126efbe5cd
:1047c000c7ff9006a8e0f5c790f79e125f6be4c3a1
:1047d0009af521741f9bf52278211226597c007dc1
:1047e00000121ea974021223a88fc77cd07d097afb
:1047f000a57b06121a7d79087c157d077a007b005f
:10480000121ca5e96408601b752108752200782137
:104810001226597c007d007a157b07121ea97402ae
:104820001223a8024fef74f012241174fe1223c257
:104830001226458a278b28126ae60592a3858221d3
:10484000858322125f6bea4b60158e828f83a3a350
:10485000a3858223858324c3e09aa3e09b50087933
:104860000112192d02495405929009d412266c7b2d
:10487000070592126ade121e3d74041223a88e826e
:104880008f83a3a3a3a3a38582258583268e828fee
:1048900083e014604a14606414602c14600d14707a
:1048a0000302493a24fe607d02495485238485240d
:1048b00085059212267085218285228305921249f0
:1048c000711217e902494d782512265985238485ee
:1048d0002485059212267012495e1217dd80167823
:1048e0002512265985238485248505921226701267
:1048f000495e1217b374041223a8805f782512262c
:1049000059ee2417f584ef1277b9059212267085b7
:10491000238485248512267012495e1217a174061d
:104920001223a88036ee2417f582ef1274cff523f8
:10493000a3e0f524e5234524700812496b1217e320
:104940008019782312265912496b1217b974021272
:1049500023a88007aa27ab28121c5d026fa5ee24ae
:1049600015f582ef1277e70592e0f985218285221d
:1049700083126416aa27ab282274f612241174fe3f
:104980001223c2122645eafeebff8921126adc12cd
:104990001e31124fdb242af582e5851274cf602286
:1049a0000592e024fd600c24fc70147407652170ee
:1049b00011800c740a65216006740165217003750d
:1049c0002100e4439201f00592f09006a1e0f52267
:1049d000ac21eefaeffbe0f91215f79006a1e065c5
:1049e000226005a92212186d024fe174f6122411fb
:1049f000e9ff8c218d22740a1223fbe0fd9006a1b1
:104a0000e0fe7821122659effc9006a1e0f912157c
:104a1000a974021223a89006a1e06e6005eef912b7
:104a2000186d024fef74f212241174fe1223c21299
:104a300026458a258b26124acb121e319006a1e00c
:104a4000ff858482858583a38582238583247821bd
:104a5000122659eefd7c04852382852483124b6344
:104a60001215a974021223a89006a1e06f6005ef49
:104a7000f912186de5842417f8e5853400f98e21c4
:104a800088828983e02521f0a3e03400f074166e5b
:104a9000701788828983c3e09416a3e094004009cc
:104aa000aa25ab261219278019790085238285242f
:104ab00083125f6b12192de40592f0aa25ab261222
:104ac0001c5d85328285338302779b8c218d22e9a0
:104ad000fe1260d27b079006a1e0fa79012274f4fd
:104ae00012241174fe1223c21226458a238b24122b
:104af0004acb121e310592e0f8740768700feef988
:104b0000ac21ad22aa23ab24121939804d740a6856
:104b100005929006a1700fe0ffeefcaa21ab22e007
:104b2000f91215af801de0ff7821122659eefd7ca9
:104b300000858482858583a3124b631215a97402b4
:104b40001223a89006a1e06f6005eff912186de43a
:104b50000592f0aa23ab24121c5d85328285338333
:104b60000268a1127f129006a1e0f92274f01224cb
:104b70001174fe1223c212264574fe1223928a2754
:104b80008b288a828b83a3a3a3a3a3a3a3a3a38518
:104b90008225858326126adc121e318527828528ac
:104ba00083a3a3e024faf523124f5a852584852692
:104bb000850592a38532828533830592124f347e18
:104bc00000804b9006a1e0ffe5842402f521e585f5
:104bd0003400f522782112265974fe29fd7c0385c4
:104be0008482858583124b631215a974021223a84f
:104bf0009006a1e06f6005eff912186d852582859a
:104c00002683e0f5212efee58425211277b5852542
:104c100082852683e0f9eec3952340a78921e52309
:104c2000c39521124f25124f6d121927026fa074e0
:104c3000f012241174fe1223c212264574fe1223b0
:104c4000928a238b24126ad1121e318523828524f5
:104c500083a3a3e024faf5221260ce8584278585fc
:104c600028e527242af582e528126acd7401f0127e
:104c70006f49640170047e0280027e1075210080fd
:104c800010e06f6005eff912186d74022e2521f502
:104c900021e521c39522505a5392fe9006a1e0ffd0
:104ca000a8218532828533831269fa1277b9eef52d
:104cb00025782512265de5842403fce5853400fd76
:104cc000124d3305929006a1e0f91215c17401123c
:104cd00023a8e99006a170a9e06f6005eff912180a
:104ce0006d852782852883e4f0aa23ab24121c5dfe
:104cf000803e852221e52124fef8e434fff98e214f
:104d0000e8c39521f8e99400f9853282853383530d
:104d100092fe1269342401f8a3e03400f985278259
:104d20008528830592a3126407aa23ab24121927ae
:104d3000026fa00592a3e0faa3e0fb227402122303
:104d4000a88532828533835392fe12264d74021257
:104d500023a87f080224e974f012241174fe1223a0
:104d6000c212264574fe1223928a278b28126ad11a
:104d7000121e31852782852883a3a3e024fbf52119
:104d8000125af00592900713125f3c8582258583a5
:104d900026e525242af582e526125b497f00800d51
:104da000e06e6005eef912186d74042fffefc395e5
:104db00021505feff8853284853385124e42126aa6
:104dc000cd85828485838505929006a1e0fe7522bb
:104dd00002782212265de5252417f523e526340006
:104de000f5247823122659124f431215bb7403126f
:104df00023a8e99006a170a8e06e6005eef91218ec
:104e00006d852582852683e4f0aa27ab28121c5dd8
:104e1000802da821853282853383e028f8a3e01213
:104e20006f0424fef582e934fff583124f82852555
:104e300082852683a3126407aa27ab2812192702aa
:104e40006fa00592e028f582a3e02274f0122411ed
:104e500074fe1223c212264574fe1223928a278bf7
:104e6000288a828b83a3a3a3a3a3a3a3a3a385823e
:104e7000258583268a828b83a3a3e024faf5211259
:104e80006adc121e31124f5a853282853383124feb
:104e9000347f008012e06e6005eef912186d8525f2
:104ea00082852683e02fff852582852683e0f8ef23
:104eb000c39521505b8f23e5252523fae526340091
:104ec000fb8a828b83a38582848583859006a1e0fb
:104ed000fe74fc28f522782212265dea2405f523cb
:104ee000eb3400f5247823122659124f431215bbd8
:104ef00074031223a8e99006a1709ae06e6005ee93
:104f0000f912186d12754eaa27ab28121c5d80127b
:104f10008823e521c39523124f25a3a3124f6d12b9
:104f20001927026fa0f895e0f9e52528f582e52616
:104f300039f58322127e67242af582e81277e77416
:104f400001f022858482858583a3a3125f45faa39d
:104f5000e0fb05929006a1e0f922127538124f612c
:104f600022853282853383e8f0a3e9f022a3124f31
:104f70008285328285338312752a124f67aa27ab46
:104f80002822e02401f8a3e03400f92274f6122468
:104f90001174fe1223c212264512186de970047aac
:104fa00086801c124fdb24161277b50592e0a2e032
:104fb00040047a818009121c57ea4b70067a827b82
:104fc00001800d0592e0c2e0f01217f57a007b0037
:104fd0008532828533835392fe800c1260d2e58441
:104fe0002285328285338312264d74021223a87fd4
:104ff000020224e974f212241174fe1223c2122652
:1050000045eafeebff8c258d2612186de970047ab7
:1050100086801212536760047a818009121c57ea55
:105020004b70067a827b01803074101223fbe0f80b
:10503000c394145004882280037522148525238587
:1050400026247823122659a922eefceffd1217d749
:1050500074021223a87a007b0002779274f0122463
:105060001174fe1223c21226458a278b28ecff12e8
:10507000186de970047a86802512536760047a817e
:10508000801cefa2e04005c3940450047a80800e97
:10509000121c578a258b26ea452670067a827b01e8
:1050a0008034efc394165004effe80027e16740a1b
:1050b0001251f512266c7b070592126ade121e3d14
:1050c00074041223a8eef9ac27ad28aa25ab26124a
:1050d00017cb7a007b00024d4174f212241174fe4a
:1050e0001223c212264574fe1223928a238b24eccb
:1050f000feedff74121223fbe0f525a3e0f5261266
:10510000186de970047a86801d12536760047a81f5
:105110008014e523452470047a80800a121c5712fb
:105120007ec770067a827b01805d74141223fbe0d7
:10513000f8c3941250048821800375211274080565
:1051400092f0a3e523f0a3e524f09009d412266c95
:105150007b070592126ade121e3d74041223a878a2
:10516000251226598e258f267825122659a921ac7d
:1051700023ad2474041223fb125f6b1217bf740457
:105180001223a87a007b0074021223a8027792747b
:10519000f412241174fe1223c21226458a22121818
:1051a0006de970047a86801a12536760047a8180f0
:1051b00011121c578a238b24ae23af24ee4f7006a6
:1051c0007a827b01802c74091251f512266c7b07c0
:1051d0000592126ade121e3d74041223a8e52260b5
:1051e00004790180027900eefaeffb1217c57a000c
:1051f0007b000268980592f0a3e4f0a3f09009d434
:105200002274f012241174fe1223c2122645eafe03
:10521000ebff8c278d2812186de970047a86801fa9
:1052200012536760047a818016ee4f70047a808092
:105230000e121c578a258b26ea452670067a827b39
:1052400001805474121223fbe0f8c39414500488b4
:1052500021800375211474060592f0a3eef0a3efec
:10526000f09009d412266c7b070592126ade121e9a
:105270003d74041223a88527238528247823122629
:1052800059a921eefceffdaa25ab261217d1740215
:105290001223a87a007b00024d4174f41224117489
:1052a000fe1223c2122645eafeebff12186de970ca
:1052b000047a86801a12536760047a818011ee4f57
:1052c00070047a808009121c57ea4b70067a827b40
:1052d00001802a7407125362eef0a3eff0858482f6
:1052e000858583a3a3a3eef0a3eff0e5842417f54f
:1052f00082e585127e421219277a007b00026898a7
:1053000074f412241174fe1223c2122645eafeeb35
:10531000ff12186de970047a86801a1253676004d0
:105320007a818011ee4f70047a808009121c57ea4e
:105330004b70067a827b0180267405125362a3a308
:10534000a882a983eef0a3eff08882898312641ffc
:105350000592a3e8f0a3e9f01219277a007b000276
:1053600068981254d9a3221260d20592e02274f2f6
:1053700012241174fe1223c21226458a218b22ecbc
:10538000feedff12186de970047a868012125367e1
:1053900060047a818009121c57ea4b70067a827b7e
:1053a00001801d7404125362e521f0a3e522f0058b
:1053b00092a3a3a3eef0a3eff01219277a007b00cb
:1053c00002779274f012241174fe1223c212264541
:1053d0008a278b288c258d2612186de970047a8611
:1053e000802e12536760047a81802574141223fb87
:1053f0000592e0ff74026f600974106f60047a8098
:10540000800e121c578a238b24ea452470067a8268
:105410007b01803474030592f08f21752200059280
:10542000782112265974141223fb1254fe121ea363
:1054300074021223a812544b8584828585831254ea
:10544000e51219277a007b00024d41e5842415f509
:1054500082e5851277e7eff02274f012241174fed2
:105460001223c21226458a278b288c258d261218d6
:105470006de970047a86802e12536760047a818009
:105480002574141223fb0592e0ff74026f60097407
:10549000106f60047a80800e121c578a238b24ead6
:1054a000452470067a827b01802c8f21752200783a
:1054b0002112265974141223fb1254fe121ea374d7
:1054c000021223a812544b74011254d91254e5123b
:1054d00019277a007b00024d410592f08584828570
:1054e0008583059222a3e527f0a3e528f00592a382
:1054f000a3a3e525f0a3e526f0aa23ab242212649a
:1055000016e5842405fae5853400fb2274f01224a4
:105510001174fe1223c212264574fe122392126edb
:10552000f58c278d2874141223fbe0fea3e0ff12f4
:10553000186de970047a86802a12536760047a81b4
:10554000802174181223fb0592e0f522c3941140c8
:10555000047a80800e121c578a258b26ea45267015
:10556000067a827b018069e5842417f582e585123d
:105570006acdeef0a3eff074020592f0e5842415f5
:10558000f582e585126acde5220592f0f5237524b2
:1055900000782312265974181223fb1254fe121e8f
:1055a000a374021223a885328285338312641f8577
:1055b0008482858583a31264070592a3a3a3e527ac
:1055c000f0a3e528f0aa25ab261219277a007b0064
:1055d000024d3c74f112241174fe1223c2122645ae
:1055e00074fc12239274021223fb126efbe5c7f5c2
:1055f000279006a8e0f5c774021223fb127e768579
:105600003284853385e5820592f0a3e583f0853207
:105610008285338305921265fbf874021223fb1214
:105620005763059290f79de0f525ff741dc39af529
:10563000268e228e2180080522efc313ff052190bc
:10564000f79ce0fce521c39c5044eec39526503ef8
:1056500012577570e8efa2e050dfa3a3a3a3a3e065
:10566000640270d375230275240078231226591220
:10567000640b8e23e5842523126f012402fae9349a
:1056800000fb121ea374021223a80e0e80abee6064
:1056900013858482858583a3ef600474028002747d
:1056a0000312574ce522700302574485328285333a
:1056b000835392fe126f4ff8741dc398fa95e0fb66
:1056c000c3ea9410eb9400a2d265d0334076740202
:1056d0001223fb125763af258e218006efc313ff01
:1056e0000521e521c39c5042e526603e5392fe12ff
:1056f000577570ecefa2e050e3a3a3a3a3a3e0646b
:105700001070d97523108e24782312265912640b39
:10571000e5842402fae5853400fb121ea37402120c
:1057200023a87e1074ff2522600e858482858583e0
:105730005392fea374068009858482858583a374b1
:105740000712574c8527c77404027665f074012e42
:10575000f80592f0088532828533830592126f53e3
:1057600028f02205921269fa3400f5850592a3a368
:10577000a3a37e002290f796126423e52175f0061c
:10578000a4faabf0e82afae93bfb8a828b83e02299
:1057900074f012241174fe1223c212264574f912f9
:1057a0002392853282853383ecf0a3edf08a278b38
:1057b00028e9fe75220012754e8a828b830592a31a
:1057c000a3a3a385822385832474026e600caa237d
:1057d000ab24121e73e960027e0274191223fb12bd
:1057e000641f74191223fb12640774191223fb122d
:1057f00069db74100592f074026e600302588485b0
:105800002382852483059212641fe870037428693b
:1058100070567f0074191223fb1269db740a05921b
:10582000f0e5c7c0e074041223fbd0e00592f090cd
:1058300006a8e0f5c712754e059290f79ce0f52694
:10584000f582ac8285278285288312765c5003021c
:1058500059be852782852883a3a3125f6bc3ec9a68
:10586000e49b50258c25802474016870037428699a
:1058700070047f01809e740368700374286970044b
:105880007f02809079000259cbeaf525e814f521d2
:10589000801274021223fb127e73e521f0a3e4f060
:1058a00015210521e521c3952540030259af126456
:1058b0001c74051223fb126407852182a882e875f7
:1058c000f006a4faabf074051224050592e02af55f
:1058d00082a3e03bf583ac82ad830592e06f70c29a
:1058e000852282aa828532848533850592e02a1238
:1058f00059d07402122405e5820592f0a3e58312c3
:1059000074a8e02404f527126f49f5236009e52700
:10591000652360030259af852723ea1274b540035b
:105920000259afe527f0eaf522e8240108e4340043
:10593000f974021223fb05921269dbe80592f0a3c9
:10594000e91274a81261c11226598c828d83a3a317
:10595000a3127e6d1223fb1274f4121ea3740212a2
:1059600023a88029e52175f006a4f8a9f074051292
:1059700023fb5392fe1265f2f870030258927401f1
:10598000687003025892e86f70030258920521e58f
:1059900021c3952640cee526652160030258927406
:1059a000021223fb127e7374fff0a3f00258a2e5eb
:1059b00022600b74191223fb5392fe127554740467
:1059c0001223fb5392fee0f5c7a9227407024d3e55
:1059d000f582a3e01277e70592a32274f71224114f
:1059e00074fe1223c2122645124ad1121e310592ac
:1059f000e0f8740668600a740868600574096870e5
:105a00001ce4125b407c00124d330592e0f9121544
:105a1000f79006a1e06e6005eef912186d0269af0d
:105a200074f212241174fe1223c21226458a258ba9
:105a300026ecffedfeec24010ce43400fd1217a768
:105a40008a848b8574101223fb126412ec4d701d36
:105a5000eff9121a11e9fec3941540027e147d007d
:105a6000eefceff9aa84ab85121a29801aeec394d2
:105a70001540027e148e21752200782112265912bb
:105a80001ea374021223a8eef9aa25ab261217ada5
:105a9000024ac28532828533830269b874f71224c0
:105aa0001174fe1223c21226458a848b85125ade97
:105ab00060237b08126ade121e31125adefae4f00d
:105ac0009006a1e0fef91215b59006a1e06e600502
:105ad000eef912186daa84ab85121c5d80b5125abe
:105ae000f090071312692f2419f582e91274d3225a
:105af000125af422125af8229006a1e075f03ba443
:105b0000f8a9f02274f712241174fe1223c212268f
:105b100045125367640b6025e5842419f582e585f9
:105b2000125b491260ce740b0592125b40f912159c
:105b3000f19006a1e06e6005eef912186d0269aff2
:105b4000f005929006a1e0fe221277e7740105921b
:105b5000f02274f112241174fe1223c2122645742d
:105b6000fc12239274021223fb126efb89228c27f3
:105b7000e975f006a4f8a9f090f7961272d2f585af
:105b80000592a3a3a3e0f582a3e0f5838582848533
:105b90008385a3e0f80592e0f52675210074075887
:105ba000f97401b900028004c333d9fcf525e81368
:105bb0001313541ffe804c05929009d412266c7b5f
:105bc000080592126ade121e3d74041223a87401a5
:105bd0002522c0e01268ae2419126acad0e0f0741f
:105be000021224050592122670ad27ac22791d748d
:105bf000021223fb0592125f6b1219b77402122373
:105c0000a805219006a2e0f8e521c3984003025cb4
:105c1000ad852182a882e875f075a4faabf09006f4
:105c2000a3125cbbe5842474f582e5851274cfa2cf
:105c3000e050cee89006a1f090069fe584f0a3e541
:105c400085f0e526a2e45031e8125cc9f8eb39f999
:105c5000e8241a1274cc5525601f121c57ea4b60b9
:105c60004c74021224050592122670ad27ac2279dd
:105c70001b1219b774021223a8e526a2e5508290e0
:105c800006a1e0125cc9faeb39fbea2422f582ebab
:105c90001274cf55257003025c01125ae1600302b1
:105ca0005c01121c57127ec76003025bb7740412ba
:105cb00023a8853282853383027671125cbf22e08d
:105cc0002af584a3e03bf5852275f03ba4f8a9f002
:105cd000900713e02efaa3e03400fbea282274f0c8
:105ce00012241174fe1223c212264589218c278d9d
:105cf0002875220074121223fbe0fea3e0ff8e82bf
:105d00008f83e0f525e5c7f524125f54f52690f75b
:105d10009ce0f8e526c39840097522018e828f83a6
:105d20008023e52612642970098524c77a887b01bf
:105d30008049a926121a11e98e828f83f0c395211a
:105d40005007752207e4f08022a821e0c398f0f8fc
:105d5000c39525500488238003852523e523f0add2
:105d600021fca926aa27ab28121a298524c7e522d7
:105d70006005fa7b0480047a007b00024d4174f6d2
:105d800012241174fe1223c2122645eaf8ecfaed31
:105d9000fb752100e5c7fe9006a8e0f5c7e814fdf5
:105da000740c1223fb12641f90f79ce0fcedc39c63
:105db000400b75210188828983e4f0801eed126f0b
:105dc000200592e0fca2e75004741080027402885f
:105dd0008289830592f0ecf9121e7f8ec7e521a21d
:105de000e05005fa7b0480047a007b00024fe174e6
:105df000f012241174fe1223c212264574fe1223df
:105e000092853282853383ecf0a3edf089257e0004
:105e1000125f4ef52290f79ce0c395225003025f7b
:105e20002fe52275f006a4f8a9f0059290f79612d6
:105e30005f3c8582278583280592a3a3e0fc24fa92
:105e4000600a14600724fb6003025f2d74141223a0
:105e5000fbe0f521740c6c7003025f1585278485c7
:105e600028850592a3a3a3e0f582a3e0f583852509
:105e700084aa84858284858385a3a3a3a3e0f8856f
:105e80002123ea2523f523e43400f524e89523e4cf
:105e90009524c365d03350057e0d025f300592a373
:105ea000a3858284858385852182a88279007406f2
:105eb0006c882389247823701b12265974021223bc
:105ec000fb125f40faa3e03400fb121ea37402121f
:105ed00023a8803112265974021223fb125f40124c
:105ee00059d0aa82ab83121ea374021223a8e52103
:105ef0002525c0e0852782852883a3a3a3126f5e92
:105f0000d0e00592f08527828528835392fea3a3d3
:105f1000e0640c700b853282853383125f6b8004e2
:105f20007a007b00ac21a9221219c980050e0e0e41
:105f30007f048526c7eefaeffb024d3c126f9622d6
:105f4000125f452a22e0fca3e0fd0592e0227f00db
:105f5000e5c7f5269006a8e0f5c7ea1422858482f5
:105f6000858583e024f9f98e828f83127f12227453
:105f7000f412241174fe1223c21226458c848d85de
:105f8000e9ffe5c7f521125f54fe90f79ce0c39e40
:105f9000500479018034740e1223fbe0f522600472
:105fa0007a0280027a80eef9121a0be9701ce4f58d
:105fb00023f5247823122659ad22effcaa84ab8561
:105fc000eef9121a2374021223a88521c7024b5a34
:105fd00074f312241174fe1223c21226458a218bf7
:105fe000221260ce8a828b83a3a3a3a3a3a3a3a31d
:105ff000a3e0700f1261ca121a77ea4b607a121c82
:106000005d80f1e5c7fe9006a8e0f5c7e584242b86
:10601000f523e5853400f524852382852483127ecb
:10602000d8605388828983a3a3a3a3a3a3a3a3a314
:10603000aa82ab83e0ff8a848b850592a3a31226f4
:10604000707d01888289830592a3a3e024f7fcea8e
:106050002404faeb3400fb74ff2ff9121a237402a4
:106060001223a8e9f525aa23ab24121a77121c5d86
